{
  "_format": "hh-sol-artifact-1",
  "contractName": "VotingContract",
  "sourceName": "contracts/VotingContract.sol",
  "abi": [
    {
      "anonymous": false,
      "inputs": [
        {
          "indexed": true,
          "internalType": "uint256",
          "name": "electionId",
          "type": "uint256"
        },
        {
          "indexed": true,
          "internalType": "uint256",
          "name": "candidateId",
          "type": "uint256"
        },
        {
          "indexed": false,
          "internalType": "string",
          "name": "name",
          "type": "string"
        }
      ],
      "name": "CandidateAdded",
      "type": "event"
    },
    {
      "anonymous": false,
      "inputs": [
        {
          "indexed": true,
          "internalType": "uint256",
          "name": "electionId",
          "type": "uint256"
        },
        {
          "indexed": false,
          "internalType": "string",
          "name": "title",
          "type": "string"
        },
        {
          "indexed": false,
          "internalType": "uint256",
          "name": "startTime",
          "type": "uint256"
        },
        {
          "indexed": false,
          "internalType": "uint256",
          "name": "endTime",
          "type": "uint256"
        }
      ],
      "name": "ElectionCreated",
      "type": "event"
    },
    {
      "anonymous": false,
      "inputs": [
        {
          "indexed": true,
          "internalType": "uint256",
          "name": "electionId",
          "type": "uint256"
        }
      ],
      "name": "ElectionEnded",
      "type": "event"
    },
    {
      "anonymous": false,
      "inputs": [
        {
          "indexed": true,
          "internalType": "address",
          "name": "previousOwner",
          "type": "address"
        },
        {
          "indexed": true,
          "internalType": "address",
          "name": "newOwner",
          "type": "address"
        }
      ],
      "name": "OwnershipTransferred",
      "type": "event"
    },
    {
      "anonymous": false,
      "inputs": [
        {
          "indexed": true,
          "internalType": "uint256",
          "name": "electionId",
          "type": "uint256"
        },
        {
          "indexed": true,
          "internalType": "uint256",
          "name": "candidateId",
          "type": "uint256"
        },
        {
          "indexed": false,
          "internalType": "address",
          "name": "voter",
          "type": "address"
        }
      ],
      "name": "VoteCast",
      "type": "event"
    },
    {
      "inputs": [
        {
          "internalType": "uint256",
          "name": "_electionId",
          "type": "uint256"
        },
        {
          "internalType": "string",
          "name": "_name",
          "type": "string"
        }
      ],
      "name": "addCandidate",
      "outputs": [],
      "stateMutability": "nonpayable",
      "type": "function"
    },
    {
      "inputs": [
        {
          "internalType": "uint256",
          "name": "",
          "type": "uint256"
        },
        {
          "internalType": "uint256",
          "name": "",
          "type": "uint256"
        }
      ],
      "name": "candidates",
      "outputs": [
        {
          "internalType": "string",
          "name": "name",
          "type": "string"
        },
        {
          "internalType": "uint256",
          "name": "voteCount",
          "type": "uint256"
        },
        {
          "internalType": "bool",
          "name": "exists",
          "type": "bool"
        }
      ],
      "stateMutability": "view",
      "type": "function"
    },
    {
      "inputs": [
        {
          "internalType": "string",
          "name": "_title",
          "type": "string"
        },
        {
          "internalType": "uint256",
          "name": "_startTime",
          "type": "uint256"
        },
        {
          "internalType": "uint256",
          "name": "_endTime",
          "type": "uint256"
        }
      ],
      "name": "createElection",
      "outputs": [],
      "stateMutability": "nonpayable",
      "type": "function"
    },
    {
      "inputs": [],
      "name": "electionCount",
      "outputs": [
        {
          "internalType": "uint256",
          "name": "",
          "type": "uint256"
        }
      ],
      "stateMutability": "view",
      "type": "function"
    },
    {
      "inputs": [
        {
          "internalType": "uint256",
          "name": "",
          "type": "uint256"
        }
      ],
      "name": "elections",
      "outputs": [
        {
          "internalType": "string",
          "name": "title",
          "type": "string"
        },
        {
          "internalType": "uint256",
          "name": "startTime",
          "type": "uint256"
        },
        {
          "internalType": "uint256",
          "name": "endTime",
          "type": "uint256"
        },
        {
          "internalType": "bool",
          "name": "exists",
          "type": "bool"
        },
        {
          "internalType": "bool",
          "name": "isActive",
          "type": "bool"
        },
        {
          "internalType": "uint256",
          "name": "candidateCount",
          "type": "uint256"
        }
      ],
      "stateMutability": "view",
      "type": "function"
    },
    {
      "inputs": [
        {
          "internalType": "uint256",
          "name": "_electionId",
          "type": "uint256"
        }
      ],
      "name": "endElection",
      "outputs": [],
      "stateMutability": "nonpayable",
      "type": "function"
    },
    {
      "inputs": [
        {
          "internalType": "uint256",
          "name": "_electionId",
          "type": "uint256"
        },
        {
          "internalType": "uint256",
          "name": "_candidateId",
          "type": "uint256"
        }
      ],
      "name": "getCandidateDetails",
      "outputs": [
        {
          "internalType": "string",
          "name": "name",
          "type": "string"
        },
        {
          "internalType": "uint256",
          "name": "voteCount",
          "type": "uint256"
        }
      ],
      "stateMutability": "view",
      "type": "function"
    },
    {
      "inputs": [
        {
          "internalType": "uint256",
          "name": "_electionId",
          "type": "uint256"
        }
      ],
      "name": "getElectionDetails",
      "outputs": [
        {
          "internalType": "string",
          "name": "title",
          "type": "string"
        },
        {
          "internalType": "uint256",
          "name": "startTime",
          "type": "uint256"
        },
        {
          "internalType": "uint256",
          "name": "endTime",
          "type": "uint256"
        },
        {
          "internalType": "bool",
          "name": "isActive",
          "type": "bool"
        },
        {
          "internalType": "uint256",
          "name": "candidateCount",
          "type": "uint256"
        }
      ],
      "stateMutability": "view",
      "type": "function"
    },
    {
      "inputs": [
        {
          "internalType": "uint256",
          "name": "_electionId",
          "type": "uint256"
        }
      ],
      "name": "getResults",
      "outputs": [
        {
          "internalType": "uint256[]",
          "name": "",
          "type": "uint256[]"
        }
      ],
      "stateMutability": "view",
      "type": "function"
    },
    {
      "inputs": [
        {
          "internalType": "uint256",
          "name": "",
          "type": "uint256"
        },
        {
          "internalType": "address",
          "name": "",
          "type": "address"
        }
      ],
      "name": "hasVoted",
      "outputs": [
        {
          "internalType": "bool",
          "name": "",
          "type": "bool"
        }
      ],
      "stateMutability": "view",
      "type": "function"
    },
    {
      "inputs": [],
      "name": "owner",
      "outputs": [
        {
          "internalType": "address",
          "name": "",
          "type": "address"
        }
      ],
      "stateMutability": "view",
      "type": "function"
    },
    {
      "inputs": [],
      "name": "renounceOwnership",
      "outputs": [],
      "stateMutability": "nonpayable",
      "type": "function"
    },
    {
      "inputs": [
        {
          "internalType": "uint256",
          "name": "_electionId",
          "type": "uint256"
        }
      ],
      "name": "startElection",
      "outputs": [],
      "stateMutability": "nonpayable",
      "type": "function"
    },
    {
      "inputs": [
        {
          "internalType": "address",
          "name": "newOwner",
          "type": "address"
        }
      ],
      "name": "transferOwnership",
      "outputs": [],
      "stateMutability": "nonpayable",
      "type": "function"
    },
    {
      "inputs": [
        {
          "internalType": "uint256",
          "name": "_electionId",
          "type": "uint256"
        },
        {
          "internalType": "uint256",
          "name": "_candidateId",
          "type": "uint256"
        }
      ],
      "name": "vote",
      "outputs": [],
      "stateMutability": "nonpayable",
      "type": "function"
    }
  ],
  "bytecode": "0x60806040523480156200001157600080fd5b5062000032620000266200003f60201b60201c565b6200004760201b60201c565b600180819055506200010b565b600033905090565b60008060009054906101000a900473ffffffffffffffffffffffffffffffffffffffff169050816000806101000a81548173ffffffffffffffffffffffffffffffffffffffff021916908373ffffffffffffffffffffffffffffffffffffffff1602179055508173ffffffffffffffffffffffffffffffffffffffff168173ffffffffffffffffffffffffffffffffffffffff167f8be0079c531659141344cd1fd0a4f28419497f9722a3daafe3b4186f6b6457e060405160405180910390a35050565b6125bc806200011b6000396000f3fe608060405234801561001057600080fd5b50600436106100f55760003560e01c80638da5cb5b11610097578063e4801f3911610066578063e4801f3914610277578063f2fde38b146102a8578063f49a7a17146102c4578063f6049924146102e0576100f5565b80638da5cb5b14610203578063997d2830146102215780639c98bcbb1461023f578063b384abef1461025b576100f5565b80636d32dc4b116100d35780636d32dc4b1461017b578063715018a6146101975780637de14242146101a157806381a60c0d146101d3576100f5565b80631750a3d0146100fa57806343859632146101165780635e6fef0114610146575b600080fd5b610114600480360381019061010f919061162c565b610314565b005b610130600480360381019061012b91906116e6565b61047a565b60405161013d9190611741565b60405180910390f35b610160600480360381019061015b919061175c565b6104a9565b60405161017296959493929190611817565b60405180910390f35b6101956004803603810190610190919061175c565b610587565b005b61019f6106c5565b005b6101bb60048036038101906101b6919061187f565b6106d9565b6040516101ca939291906118bf565b60405180910390f35b6101ed60048036038101906101e8919061175c565b6107a5565b6040516101fa91906119bb565b60405180910390f35b61020b6108e8565b60405161021891906119ec565b60405180910390f35b610229610911565b6040516102369190611a07565b60405180910390f35b6102596004803603810190610254919061175c565b610917565b005b6102756004803603810190610270919061187f565b610a81565b005b610291600480360381019061028c919061187f565b610e04565b60405161029f929190611a22565b60405180910390f35b6102c260048036038101906102bd9190611a52565b610f87565b005b6102de60048036038101906102d99190611a7f565b61100a565b005b6102fa60048036038101906102f5919061175c565b6111b1565b60405161030b959493929190611aee565b60405180910390f35b61031c6112fa565b816002600082815260200190815260200160002060030160009054906101000a900460ff16610380576040517f08c379a000000000000000000000000000000000000000000000000000000000815260040161037790611b94565b60405180910390fd5b600060026000858152602001908152602001600020905060008160040160008154809291906103ae90611be3565b91905055905060405180606001604052808581526020016000815260200160011515815250600360008781526020019081526020016000206000838152602001908152602001600020600082015181600001908161040c9190611e37565b506020820151816001015560408201518160020160006101000a81548160ff02191690831515021790555090505080857fed8911b3df733b7d5f75724158e54478ea12e30f49c9d31b5261879f5b76586f8660405161046b9190611f09565b60405180910390a35050505050565b60046020528160005260406000206020528060005260406000206000915091509054906101000a900460ff1681565b60026020528060005260406000206000915090508060000180546104cc90611c5a565b80601f01602080910402602001604051908101604052809291908181526020018280546104f890611c5a565b80156105455780601f1061051a57610100808354040283529160200191610545565b820191906000526020600020905b81548152906001019060200180831161052857829003601f168201915b5050505050908060010154908060020154908060030160009054906101000a900460ff16908060030160019054906101000a900460ff16908060040154905086565b61058f6112fa565b806002600082815260200190815260200160002060030160009054906101000a900460ff166105f3576040517f08c379a00000000000000000000000000000000000000000000000000000000081526004016105ea90611b94565b60405180910390fd5b60006002600084815260200190815260200160002090508060030160019054906101000a900460ff161561065c576040517f08c379a000000000000000000000000000000000000000000000000000000000815260040161065390611f77565b60405180910390fd5b80600101544210156106a3576040517f08c379a000000000000000000000000000000000000000000000000000000000815260040161069a90612009565b60405180910390fd5b60018160030160016101000a81548160ff021916908315150217905550505050565b6106cd6112fa565b6106d76000611378565b565b60036020528160005260406000206020528060005260406000206000915091505080600001805461070990611c5a565b80601f016020809104026020016040519081016040528092919081815260200182805461073590611c5a565b80156107825780601f1061075757610100808354040283529160200191610782565b820191906000526020600020905b81548152906001019060200180831161076557829003601f168201915b5050505050908060010154908060020160009054906101000a900460ff16905083565b6060816002600082815260200190815260200160002060030160009054906101000a900460ff1661080b576040517f08c379a000000000000000000000000000000000000000000000000000000000815260040161080290611b94565b60405180910390fd5b60006002600085815260200190815260200160002090506000816004015467ffffffffffffffff81111561084257610841611501565b5b6040519080825280602002602001820160405280156108705781602001602082028036833780820191505090505b50905060005b82600401548110156108dc57600360008781526020019081526020016000206000828152602001908152602001600020600101548282815181106108bd576108bc612029565b5b60200260200101818152505080806108d490611be3565b915050610876565b50809350505050919050565b60008060009054906101000a900473ffffffffffffffffffffffffffffffffffffffff16905090565b60055481565b61091f6112fa565b806002600082815260200190815260200160002060030160009054906101000a900460ff16610983576040517f08c379a000000000000000000000000000000000000000000000000000000000815260040161097a90611b94565b60405180910390fd5b60006002600084815260200190815260200160002090508060030160019054906101000a900460ff166109eb576040517f08c379a00000000000000000000000000000000000000000000000000000000081526004016109e2906120a4565b60405180910390fd5b8060020154421015610a32576040517f08c379a0000000000000000000000000000000000000000000000000000000008152600401610a2990612110565b60405180910390fd5b60008160030160016101000a81548160ff021916908315150217905550827f562cd572b2ba3b666cd989fc4ca98419ec81e75f04528df9d9d76fdb7807ee7160405160405180910390a2505050565b610a8961143c565b816002600082815260200190815260200160002060030160009054906101000a900460ff16610aed576040517f08c379a0000000000000000000000000000000000000000000000000000000008152600401610ae490611b94565b60405180910390fd5b826002600082815260200190815260200160002060030160019054906101000a900460ff16610b51576040517f08c379a0000000000000000000000000000000000000000000000000000000008152600401610b48906120a4565b60405180910390fd5b6002600082815260200190815260200160002060010154421015610baa576040517f08c379a0000000000000000000000000000000000000000000000000000000008152600401610ba19061217c565b60405180910390fd5b6002600082815260200190815260200160002060020154421115610c03576040517f08c379a0000000000000000000000000000000000000000000000000000000008152600401610bfa906121e8565b60405180910390fd5b836004600082815260200190815260200160002060003373ffffffffffffffffffffffffffffffffffffffff1673ffffffffffffffffffffffffffffffffffffffff16815260200190815260200160002060009054906101000a900460ff1615610ca2576040517f08c379a0000000000000000000000000000000000000000000000000000000008152600401610c9990612254565b60405180910390fd5b60036000868152602001908152602001600020600085815260200190815260200160002060020160009054906101000a900460ff16610d16576040517f08c379a0000000000000000000000000000000000000000000000000000000008152600401610d0d906122c0565b60405180910390fd5b6003600086815260200190815260200160002060008581526020019081526020016000206001016000815480929190610d4e90611be3565b919050555060016004600087815260200190815260200160002060003373ffffffffffffffffffffffffffffffffffffffff1673ffffffffffffffffffffffffffffffffffffffff16815260200190815260200160002060006101000a81548160ff02191690831515021790555083857f7fe1d4e6b34e228b5dc059fcdc037c71b216fb2417f47c171e505144a5e4f5fc33604051610ded91906119ec565b60405180910390a3505050610e0061148b565b5050565b60606000836002600082815260200190815260200160002060030160009054906101000a900460ff16610e6c576040517f08c379a0000000000000000000000000000000000000000000000000000000008152600401610e6390611b94565b60405180910390fd5b600060036000878152602001908152602001600020600086815260200190815260200160002090508060020160009054906101000a900460ff16610ee5576040517f08c379a0000000000000000000000000000000000000000000000000000000008152600401610edc906122c0565b60405180910390fd5b806000018160010154818054610efa90611c5a565b80601f0160208091040260200160405190810160405280929190818152602001828054610f2690611c5a565b8015610f735780601f10610f4857610100808354040283529160200191610f73565b820191906000526020600020905b815481529060010190602001808311610f5657829003601f168201915b505050505091509350935050509250929050565b610f8f6112fa565b600073ffffffffffffffffffffffffffffffffffffffff168173ffffffffffffffffffffffffffffffffffffffff1603610ffe576040517f08c379a0000000000000000000000000000000000000000000000000000000008152600401610ff590612352565b60405180910390fd5b61100781611378565b50565b6110126112fa565b428211611054576040517f08c379a000000000000000000000000000000000000000000000000000000000815260040161104b906123be565b60405180910390fd5b818111611096576040517f08c379a000000000000000000000000000000000000000000000000000000000815260040161108d90612450565b60405180910390fd5b6000600560008154809291906110ab90611be3565b9190505590506040518060c00160405280858152602001848152602001838152602001600115158152602001600015158152602001600081525060026000838152602001908152602001600020600082015181600001908161110d9190611e37565b50602082015181600101556040820151816002015560608201518160030160006101000a81548160ff02191690831515021790555060808201518160030160016101000a81548160ff02191690831515021790555060a08201518160040155905050807fe7a0aae5d733e07e246dea86213a1ac1b0aa8554bde889bb75c12752f44e53d98585856040516111a393929190612470565b60405180910390a250505050565b6060600080600080856002600082815260200190815260200160002060030160009054906101000a900460ff1661121d576040517f08c379a000000000000000000000000000000000000000000000000000000000815260040161121490611b94565b60405180910390fd5b600060026000898152602001908152602001600020905080600001816001015482600201548360030160019054906101000a900460ff16846004015484805461126590611c5a565b80601f016020809104026020016040519081016040528092919081815260200182805461129190611c5a565b80156112de5780601f106112b3576101008083540402835291602001916112de565b820191906000526020600020905b8154815290600101906020018083116112c157829003601f168201915b5050505050945096509650965096509650505091939590929450565b611302611494565b73ffffffffffffffffffffffffffffffffffffffff166113206108e8565b73ffffffffffffffffffffffffffffffffffffffff1614611376576040517f08c379a000000000000000000000000000000000000000000000000000000000815260040161136d906124fa565b60405180910390fd5b565b60008060009054906101000a900473ffffffffffffffffffffffffffffffffffffffff169050816000806101000a81548173ffffffffffffffffffffffffffffffffffffffff021916908373ffffffffffffffffffffffffffffffffffffffff1602179055508173ffffffffffffffffffffffffffffffffffffffff168173ffffffffffffffffffffffffffffffffffffffff167f8be0079c531659141344cd1fd0a4f28419497f9722a3daafe3b4186f6b6457e060405160405180910390a35050565b600260015403611481576040517f08c379a000000000000000000000000000000000000000000000000000000000815260040161147890612566565b60405180910390fd5b6002600181905550565b60018081905550565b600033905090565b6000604051905090565b600080fd5b600080fd5b6000819050919050565b6114c3816114b0565b81146114ce57600080fd5b50565b6000813590506114e0816114ba565b92915050565b600080fd5b600080fd5b6000601f19601f8301169050919050565b7f4e487b7100000000000000000000000000000000000000000000000000000000600052604160045260246000fd5b611539826114f0565b810181811067ffffffffffffffff8211171561155857611557611501565b5b80604052505050565b600061156b61149c565b90506115778282611530565b919050565b600067ffffffffffffffff82111561159757611596611501565b5b6115a0826114f0565b9050602081019050919050565b82818337600083830152505050565b60006115cf6115ca8461157c565b611561565b9050828152602081018484840111156115eb576115ea6114eb565b5b6115f68482856115ad565b509392505050565b600082601f830112611613576116126114e6565b5b81356116238482602086016115bc565b91505092915050565b60008060408385031215611643576116426114a6565b5b6000611651858286016114d1565b925050602083013567ffffffffffffffff811115611672576116716114ab565b5b61167e858286016115fe565b9150509250929050565b600073ffffffffffffffffffffffffffffffffffffffff82169050919050565b60006116b382611688565b9050919050565b6116c3816116a8565b81146116ce57600080fd5b50565b6000813590506116e0816116ba565b92915050565b600080604083850312156116fd576116fc6114a6565b5b600061170b858286016114d1565b925050602061171c858286016116d1565b9150509250929050565b60008115159050919050565b61173b81611726565b82525050565b60006020820190506117566000830184611732565b92915050565b600060208284031215611772576117716114a6565b5b6000611780848285016114d1565b91505092915050565b600081519050919050565b600082825260208201905092915050565b60005b838110156117c35780820151818401526020810190506117a8565b60008484015250505050565b60006117da82611789565b6117e48185611794565b93506117f48185602086016117a5565b6117fd816114f0565b840191505092915050565b611811816114b0565b82525050565b600060c082019050818103600083015261183181896117cf565b90506118406020830188611808565b61184d6040830187611808565b61185a6060830186611732565b6118676080830185611732565b61187460a0830184611808565b979650505050505050565b60008060408385031215611896576118956114a6565b5b60006118a4858286016114d1565b92505060206118b5858286016114d1565b9150509250929050565b600060608201905081810360008301526118d981866117cf565b90506118e86020830185611808565b6118f56040830184611732565b949350505050565b600081519050919050565b600082825260208201905092915050565b6000819050602082019050919050565b611932816114b0565b82525050565b60006119448383611929565b60208301905092915050565b6000602082019050919050565b6000611968826118fd565b6119728185611908565b935061197d83611919565b8060005b838110156119ae5781516119958882611938565b97506119a083611950565b925050600181019050611981565b5085935050505092915050565b600060208201905081810360008301526119d5818461195d565b905092915050565b6119e6816116a8565b82525050565b6000602082019050611a0160008301846119dd565b92915050565b6000602082019050611a1c6000830184611808565b92915050565b60006040820190508181036000830152611a3c81856117cf565b9050611a4b6020830184611808565b9392505050565b600060208284031215611a6857611a676114a6565b5b6000611a76848285016116d1565b91505092915050565b600080600060608486031215611a9857611a976114a6565b5b600084013567ffffffffffffffff811115611ab657611ab56114ab565b5b611ac2868287016115fe565b9350506020611ad3868287016114d1565b9250506040611ae4868287016114d1565b9150509250925092565b600060a0820190508181036000830152611b0881886117cf565b9050611b176020830187611808565b611b246040830186611808565b611b316060830185611732565b611b3e6080830184611808565b9695505050505050565b7f456c656374696f6e20646f6573206e6f74206578697374000000000000000000600082015250565b6000611b7e601783611794565b9150611b8982611b48565b602082019050919050565b60006020820190508181036000830152611bad81611b71565b9050919050565b7f4e487b7100000000000000000000000000000000000000000000000000000000600052601160045260246000fd5b6000611bee826114b0565b91507fffffffffffffffffffffffffffffffffffffffffffffffffffffffffffffffff8203611c2057611c1f611bb4565b5b600182019050919050565b7f4e487b7100000000000000000000000000000000000000000000000000000000600052602260045260246000fd5b60006002820490506001821680611c7257607f821691505b602082108103611c8557611c84611c2b565b5b50919050565b60008190508160005260206000209050919050565b60006020601f8301049050919050565b600082821b905092915050565b600060088302611ced7fffffffffffffffffffffffffffffffffffffffffffffffffffffffffffffffff82611cb0565b611cf78683611cb0565b95508019841693508086168417925050509392505050565b6000819050919050565b6000611d34611d2f611d2a846114b0565b611d0f565b6114b0565b9050919050565b6000819050919050565b611d4e83611d19565b611d62611d5a82611d3b565b848454611cbd565b825550505050565b600090565b611d77611d6a565b611d82818484611d45565b505050565b5b81811015611da657611d9b600082611d6f565b600181019050611d88565b5050565b601f821115611deb57611dbc81611c8b565b611dc584611ca0565b81016020851015611dd4578190505b611de8611de085611ca0565b830182611d87565b50505b505050565b600082821c905092915050565b6000611e0e60001984600802611df0565b1980831691505092915050565b6000611e278383611dfd565b9150826002028217905092915050565b611e4082611789565b67ffffffffffffffff811115611e5957611e58611501565b5b611e638254611c5a565b611e6e828285611daa565b600060209050601f831160018114611ea15760008415611e8f578287015190505b611e998582611e1b565b865550611f01565b601f198416611eaf86611c8b565b60005b82811015611ed757848901518255600182019150602085019450602081019050611eb2565b86831015611ef45784890151611ef0601f891682611dfd565b8355505b6001600288020188555050505b505050505050565b60006020820190508181036000830152611f2381846117cf565b905092915050565b7f456c656374696f6e20697320616c726561647920616374697665000000000000600082015250565b6000611f61601a83611794565b9150611f6c82611f2b565b602082019050919050565b60006020820190508181036000830152611f9081611f54565b9050919050565b7f43616e6e6f74207374617274206265666f7265207363686564756c656420746960008201527f6d65000000000000000000000000000000000000000000000000000000000000602082015250565b6000611ff3602283611794565b9150611ffe82611f97565b604082019050919050565b6000602082019050818103600083015261202281611fe6565b9050919050565b7f4e487b7100000000000000000000000000000000000000000000000000000000600052603260045260246000fd5b7f456c656374696f6e206973206e6f742061637469766500000000000000000000600082015250565b600061208e601683611794565b915061209982612058565b602082019050919050565b600060208201905081810360008301526120bd81612081565b9050919050565b7f43616e6e6f7420656e64206265666f7265207363686564756c65642074696d65600082015250565b60006120fa602083611794565b9150612105826120c4565b602082019050919050565b60006020820190508181036000830152612129816120ed565b9050919050565b7f456c656374696f6e20686173206e6f7420737461727465640000000000000000600082015250565b6000612166601883611794565b915061217182612130565b602082019050919050565b6000602082019050818103600083015261219581612159565b9050919050565b7f456c656374696f6e2068617320656e6465640000000000000000000000000000600082015250565b60006121d2601283611794565b91506121dd8261219c565b602082019050919050565b60006020820190508181036000830152612201816121c5565b9050919050565b7f416c726561647920766f74656400000000000000000000000000000000000000600082015250565b600061223e600d83611794565b915061224982612208565b602082019050919050565b6000602082019050818103600083015261226d81612231565b9050919050565b7f43616e64696461746520646f6573206e6f742065786973740000000000000000600082015250565b60006122aa601883611794565b91506122b582612274565b602082019050919050565b600060208201905081810360008301526122d98161229d565b9050919050565b7f4f776e61626c653a206e6577206f776e657220697320746865207a65726f206160008201527f6464726573730000000000000000000000000000000000000000000000000000602082015250565b600061233c602683611794565b9150612347826122e0565b604082019050919050565b6000602082019050818103600083015261236b8161232f565b9050919050565b7f53746172742074696d65206d75737420626520696e2074686520667574757265600082015250565b60006123a8602083611794565b91506123b382612372565b602082019050919050565b600060208201905081810360008301526123d78161239b565b9050919050565b7f456e642074696d65206d7573742062652061667465722073746172742074696d60008201527f6500000000000000000000000000000000000000000000000000000000000000602082015250565b600061243a602183611794565b9150612445826123de565b604082019050919050565b600060208201905081810360008301526124698161242d565b9050919050565b6000606082019050818103600083015261248a81866117cf565b90506124996020830185611808565b6124a66040830184611808565b949350505050565b7f4f776e61626c653a2063616c6c6572206973206e6f7420746865206f776e6572600082015250565b60006124e4602083611794565b91506124ef826124ae565b602082019050919050565b60006020820190508181036000830152612513816124d7565b9050919050565b7f5265656e7472616e637947756172643a207265656e7472616e742063616c6c00600082015250565b6000612550601f83611794565b915061255b8261251a565b602082019050919050565b6000602082019050818103600083015261257f81612543565b905091905056fea2646970667358221220fb6bfa58f4e0833d124846fb524147483d3271b61fd63a6dac8ad5d795422aa764736f6c63430008130033",
  "linkReferences": {},
  "deployedLinkReferences": {}
}